{
  "contractName": "Contract",
  "abi": [
    {
      "inputs": [],
      "stateMutability": "nonpayable",
      "type": "constructor"
    },
    {
      "inputs": [
        {
          "internalType": "uint256",
          "name": "",
          "type": "uint256"
        }
      ],
      "name": "Dr_ids",
      "outputs": [
        {
          "internalType": "address",
          "name": "",
          "type": "address"
        }
      ],
      "stateMutability": "view",
      "type": "function",
      "constant": true
    },
    {
      "inputs": [
        {
          "internalType": "uint256",
          "name": "",
          "type": "uint256"
        }
      ],
      "name": "Patient_ids",
      "outputs": [
        {
          "internalType": "address",
          "name": "",
          "type": "address"
        }
      ],
      "stateMutability": "view",
      "type": "function",
      "constant": true
    },
    {
      "inputs": [
        {
          "internalType": "uint256",
          "name": "",
          "type": "uint256"
        }
      ],
      "name": "RecordHashes",
      "outputs": [
        {
          "internalType": "string",
          "name": "",
          "type": "string"
        }
      ],
      "stateMutability": "view",
      "type": "function",
      "constant": true
    },
    {
      "inputs": [],
      "name": "getAdmin",
      "outputs": [
        {
          "internalType": "address",
          "name": "",
          "type": "address"
        }
      ],
      "stateMutability": "view",
      "type": "function",
      "constant": true
    },
    {
      "inputs": [
        {
          "internalType": "address",
          "name": "_newdr",
          "type": "address"
        }
      ],
      "name": "addDoctor",
      "outputs": [],
      "stateMutability": "nonpayable",
      "type": "function"
    },
    {
      "inputs": [
        {
          "internalType": "address",
          "name": "docID",
          "type": "address"
        }
      ],
      "name": "delDoctor",
      "outputs": [],
      "stateMutability": "nonpayable",
      "type": "function"
    },
    {
      "inputs": [
        {
          "internalType": "address",
          "name": "id",
          "type": "address"
        }
      ],
      "name": "isDr",
      "outputs": [
        {
          "internalType": "string",
          "name": "",
          "type": "string"
        }
      ],
      "stateMutability": "view",
      "type": "function",
      "constant": true
    },
    {
      "inputs": [
        {
          "internalType": "address",
          "name": "id",
          "type": "address"
        }
      ],
      "name": "isPat",
      "outputs": [
        {
          "internalType": "string",
          "name": "",
          "type": "string"
        }
      ],
      "stateMutability": "view",
      "type": "function",
      "constant": true
    },
    {
      "inputs": [
        {
          "internalType": "address",
          "name": "id",
          "type": "address"
        }
      ],
      "name": "isAgent",
      "outputs": [
        {
          "internalType": "bool",
          "name": "",
          "type": "bool"
        }
      ],
      "stateMutability": "view",
      "type": "function",
      "constant": true
    },
    {
      "inputs": [
        {
          "internalType": "address",
          "name": "_newpatient",
          "type": "address"
        }
      ],
      "name": "addPatient",
      "outputs": [],
      "stateMutability": "nonpayable",
      "type": "function"
    },
    {
      "inputs": [
        {
          "internalType": "address",
          "name": "iD",
          "type": "address"
        }
      ],
      "name": "getPatInfo",
      "outputs": [
        {
          "internalType": "string",
          "name": "",
          "type": "string"
        }
      ],
      "stateMutability": "view",
      "type": "function",
      "constant": true
    },
    {
      "inputs": [
        {
          "internalType": "address",
          "name": "pat_id",
          "type": "address"
        },
        {
          "internalType": "string",
          "name": "_patInfoHash",
          "type": "string"
        }
      ],
      "name": "addPatInfo",
      "outputs": [],
      "stateMutability": "nonpayable",
      "type": "function"
    },
    {
      "inputs": [
        {
          "internalType": "string",
          "name": "_recHash",
          "type": "string"
        },
        {
          "internalType": "address",
          "name": "_pat_id",
          "type": "address"
        }
      ],
      "name": "addMedRecord",
      "outputs": [],
      "stateMutability": "nonpayable",
      "type": "function"
    },
    {
      "inputs": [
        {
          "internalType": "address",
          "name": "id",
          "type": "address"
        }
      ],
      "name": "viewMedRec",
      "outputs": [
        {
          "internalType": "string",
          "name": "",
          "type": "string"
        }
      ],
      "stateMutability": "view",
      "type": "function",
      "constant": true
    },
    {
      "inputs": [
        {
          "internalType": "address",
          "name": "_aID",
          "type": "address"
        }
      ],
      "name": "addAgent",
      "outputs": [],
      "stateMutability": "nonpayable",
      "type": "function"
    },
    {
      "inputs": [
        {
          "internalType": "uint256",
          "name": "_id",
          "type": "uint256"
        },
        {
          "internalType": "address",
          "name": "_pID",
          "type": "address"
        },
        {
          "internalType": "string",
          "name": "_amount",
          "type": "string"
        },
        {
          "internalType": "string",
          "name": "_status",
          "type": "string"
        }
      ],
      "name": "addBill",
      "outputs": [],
      "stateMutability": "nonpayable",
      "type": "function"
    },
    {
      "inputs": [
        {
          "internalType": "address",
          "name": "_id",
          "type": "address"
        }
      ],
      "name": "getBills",
      "outputs": [
        {
          "components": [
            {
              "internalType": "uint256",
              "name": "id",
              "type": "uint256"
            },
            {
              "internalType": "uint256",
              "name": "bID",
              "type": "uint256"
            },
            {
              "internalType": "uint256",
              "name": "cID",
              "type": "uint256"
            },
            {
              "internalType": "address",
              "name": "pID",
              "type": "address"
            },
            {
              "internalType": "string",
              "name": "amount",
              "type": "string"
            },
            {
              "internalType": "string",
              "name": "status",
              "type": "string"
            }
          ],
          "internalType": "struct Contract.Bill[]",
          "name": "",
          "type": "tuple[]"
        }
      ],
      "stateMutability": "view",
      "type": "function",
      "constant": true
    },
    {
      "inputs": [],
      "name": "getAllBills",
      "outputs": [
        {
          "components": [
            {
              "internalType": "uint256",
              "name": "id",
              "type": "uint256"
            },
            {
              "internalType": "uint256",
              "name": "bID",
              "type": "uint256"
            },
            {
              "internalType": "uint256",
              "name": "cID",
              "type": "uint256"
            },
            {
              "internalType": "address",
              "name": "pID",
              "type": "address"
            },
            {
              "internalType": "string",
              "name": "amount",
              "type": "string"
            },
            {
              "internalType": "string",
              "name": "status",
              "type": "string"
            }
          ],
          "internalType": "struct Contract.Bill[]",
          "name": "",
          "type": "tuple[]"
        }
      ],
      "stateMutability": "view",
      "type": "function",
      "constant": true
    },
    {
      "inputs": [
        {
          "internalType": "uint256",
          "name": "_id",
          "type": "uint256"
        },
        {
          "internalType": "string",
          "name": "_status",
          "type": "string"
        },
        {
          "internalType": "uint256",
          "name": "_cID",
          "type": "uint256"
        }
      ],
      "name": "updateInsurance",
      "outputs": [],
      "stateMutability": "nonpayable",
      "type": "function"
    },
    {
      "inputs": [
        {
          "internalType": "uint256",
          "name": "_bID",
          "type": "uint256"
        },
        {
          "internalType": "address",
          "name": "_pID",
          "type": "address"
        },
        {
          "internalType": "address",
          "name": "_aID",
          "type": "address"
        },
        {
          "internalType": "string",
          "name": "_amount",
          "type": "string"
        },
        {
          "internalType": "string",
          "name": "_status",
          "type": "string"
        }
      ],
      "name": "claimInsurance",
      "outputs": [],
      "stateMutability": "nonpayable",
      "type": "function"
    },
    {
      "inputs": [
        {
          "internalType": "address",
          "name": "_pID",
          "type": "address"
        }
      ],
      "name": "getUserClaims",
      "outputs": [
        {
          "components": [
            {
              "internalType": "uint256",
              "name": "id",
              "type": "uint256"
            },
            {
              "internalType": "uint256",
              "name": "bID",
              "type": "uint256"
            },
            {
              "internalType": "address",
              "name": "pID",
              "type": "address"
            },
            {
              "internalType": "address",
              "name": "aID",
              "type": "address"
            },
            {
              "internalType": "string",
              "name": "status",
              "type": "string"
            },
            {
              "internalType": "string",
              "name": "amount",
              "type": "string"
            }
          ],
          "internalType": "struct Contract.Claim[]",
          "name": "",
          "type": "tuple[]"
        }
      ],
      "stateMutability": "view",
      "type": "function",
      "constant": true
    },
    {
      "inputs": [
        {
          "internalType": "address",
          "name": "_aID",
          "type": "address"
        }
      ],
      "name": "getAgentClaims",
      "outputs": [
        {
          "components": [
            {
              "internalType": "uint256",
              "name": "id",
              "type": "uint256"
            },
            {
              "internalType": "uint256",
              "name": "bID",
              "type": "uint256"
            },
            {
              "internalType": "address",
              "name": "pID",
              "type": "address"
            },
            {
              "internalType": "address",
              "name": "aID",
              "type": "address"
            },
            {
              "internalType": "string",
              "name": "status",
              "type": "string"
            },
            {
              "internalType": "string",
              "name": "amount",
              "type": "string"
            }
          ],
          "internalType": "struct Contract.Claim[]",
          "name": "",
          "type": "tuple[]"
        }
      ],
      "stateMutability": "view",
      "type": "function",
      "constant": true
    },
    {
      "inputs": [
        {
          "internalType": "uint256",
          "name": "_cID",
          "type": "uint256"
        },
        {
          "internalType": "string",
          "name": "_status",
          "type": "string"
        }
      ],
      "name": "updateClaim",
      "outputs": [],
      "stateMutability": "nonpayable",
      "type": "function"
    },
    {
      "inputs": [
        {
          "internalType": "uint256",
          "name": "_cID",
          "type": "uint256"
        },
        {
          "internalType": "uint256",
          "name": "_bID",
          "type": "uint256"
        }
      ],
      "name": "acceptClaim",
      "outputs": [],
      "stateMutability": "nonpayable",
      "type": "function"
    },
    {
      "inputs": [
        {
          "internalType": "uint256",
          "name": "_cID",
          "type": "uint256"
        },
        {
          "internalType": "uint256",
          "name": "_bID",
          "type": "uint256"
        }
      ],
      "name": "rejectClaim",
      "outputs": [],
      "stateMutability": "nonpayable",
      "type": "function"
    },
    {
      "inputs": [
        {
          "internalType": "uint256",
          "name": "_cID",
          "type": "uint256"
        },
        {
          "internalType": "uint256",
          "name": "_bID",
          "type": "uint256"
        }
      ],
      "name": "sendPayment",
      "outputs": [],
      "stateMutability": "nonpayable",
      "type": "function"
    }
  ],
  "bytecode": "0x60806040523480156200001157600080fd5b5060118054336001600160a01b03199091168117909155620000429060009062000052602090811b6200187c17901c565b600060168190556017556200015b565b6200005e8282620000d6565b15620000b15760405162461bcd60e51b815260206004820152601f60248201527f526f6c65733a206163636f756e7420616c72656164792068617320726f6c650060448201526064015b60405180910390fd5b6001600160a01b0316600090815260209190915260409020805460ff19166001179055565b60006001600160a01b0382166200013b5760405162461bcd60e51b815260206004820152602260248201527f526f6c65733a206163636f756e7420697320746865207a65726f206164647265604482015261737360f01b6064820152608401620000a8565b506001600160a01b03166000908152602091909152604090205460ff1690565b6121c3806200016b6000396000f3fe608060405234801561001057600080fd5b506004361061018e5760003560e01c80636d263ceb116100de578063b668219e11610097578063cc57291411610071578063cc5729141461037e578063da4db65d14610391578063e165c268146103a4578063f1a1d7d5146103b757600080fd5b8063b668219e14610345578063be95687314610358578063c979783f1461036b57600080fd5b80636d263ceb146102d35780636e9960c3146102e6578063720d5b4b146102f75780637bcb4a641461030a578063818e1f1a1461032a57806384e798421461033257600080fd5b80633c52554b1161014b5780634780468f116101255780634780468f146102875780634f5e63071461029a57806358dae14f146102ad5780635ae3e018146102c057600080fd5b80633c52554b146102345780633cb749171461025457806345a132aa1461026757600080fd5b806311f67285146101935780631d260f8e146101a85780631ffbb064146101bb5780632068eee4146101e35780632f4a4dcb146101f6578063323f040f14610221575b600080fd5b6101a66101a1366004611c57565b6103ca565b005b6101a66101b6366004611ca5565b610453565b6101ce6101c9366004611cc7565b6104bd565b60405190151581526020015b60405180910390f35b6101a66101f1366004611ca5565b6104d0565b610209610204366004611ce9565b6104fb565b6040516001600160a01b0390911681526020016101da565b6101a661022f366004611d02565b610525565b610247610242366004611cc7565b61078d565b6040516101da9190611dcd565b6101a6610262366004611ca5565b610839565b61027a610275366004611cc7565b61088f565b6040516101da9190611de0565b6101a6610295366004611cc7565b610aec565b6101a66102a8366004611e9d565b610b42565b6102476102bb366004611ce9565b610b6e565b6101a66102ce366004611cc7565b610c1a565b6101a66102e1366004611cc7565b610c6d565b6011546001600160a01b0316610209565b610247610305366004611cc7565b610ccd565b61031d610318366004611cc7565b610d36565b6040516101da9190611ece565b61027a610f7b565b6101a6610340366004611cc7565b6111ac565b6101a6610353366004611f82565b611343565b610247610366366004611cc7565b611372565b610209610379366004611ce9565b61137f565b61024761038c366004611cc7565b61138f565b6101a661039f366004611fd2565b6113b6565b61031d6103b2366004611cc7565b61156a565b6101a66103c5366004612061565b6117af565b6001600160a01b0382166000908152600560209081526040909120825190916103f79183918501906119fd565b50600e80546001810182556000919091527fbb7b4a454dc3493923482f07822329ed19e8244eff582cc204f8554c3620c3fd0180546001600160a01b0319166001600160a01b03851617905561044e60028461187c565b505050565b61045e6003336118f8565b6104835760405162461bcd60e51b815260040161047a906120af565b60405180910390fd5b60408051808201909152600e81526d10db185a5b481058d8d95c1d195960921b60208201526104b28382610b42565b61044e828285611343565b60006104ca6003836118f8565b92915050565b60408051808201909152600a815269109a5b1b0814185e595960b21b60208201526104b28382610b42565b600e818154811061050b57600080fd5b6000918252602090912001546001600160a01b0316905081565b6017805490600061053583612109565b90915550506017546000818152600860209081526040909120918255600182018690556003820180546001600160a01b0319166001600160a01b0387161790558351610589916004840191908601906119fd565b50815161059f90600583019060208501906119fd565b506001600160a01b038085166000908152600a60209081526040822080546001818101835582855292909320855460069094020192835581850154918301919091556002808501549083015560038085015490830180546001600160a01b0319169190941617909255600480840180548593928301919061061f90612124565b61062a929190611a81565b50600582018160050190805461063f90612124565b61064a929190611a81565b50506014805460018181018355600092909252845460069091027fce6d7b5282bd9a3661ae061feed1dbda4e52ab073b1f9285be6e155d9c38d4ec8101918255918501547fce6d7b5282bd9a3661ae061feed1dbda4e52ab073b1f9285be6e155d9c38d4ed83015560028501547fce6d7b5282bd9a3661ae061feed1dbda4e52ab073b1f9285be6e155d9c38d4ee83015560038501547fce6d7b5282bd9a3661ae061feed1dbda4e52ab073b1f9285be6e155d9c38d4ef830180546001600160a01b0319166001600160a01b0390921691909117905560048501805486945091927fce6d7b5282bd9a3661ae061feed1dbda4e52ab073b1f9285be6e155d9c38d4f0019161075790612124565b610762929190611a81565b50600582018160050190805461077790612124565b610782929190611a81565b505050505050505050565b6001600160a01b03811660009081526006602052604090208054606091906107b490612124565b80601f01602080910402602001604051908101604052809291908181526020018280546107e090612124565b801561082d5780601f106108025761010080835404028352916020019161082d565b820191906000526020600020905b81548152906001019060200180831161081057829003601f168201915b50505050509050919050565b6108446003336118f8565b6108605760405162461bcd60e51b815260040161047a906120af565b60408051808201909152600e81526d10db185a5b4814995a9958dd195960921b60208201526104b28382610b42565b6001600160a01b0381166000908152600a60205260408120546060919067ffffffffffffffff8111156108c4576108c4611bb4565b6040519080825280602002602001820160405280156108fd57816020015b6108ea611afc565b8152602001906001900390816108e25790505b5090506000805b6014548111610ae3576000818152600860205260409020600301546001600160a01b0386811691161415610ad157600081815260086020908152604091829020825160c0810184528154815260018201549281019290925260028101549282019290925260038201546001600160a01b0316606082015260048201805491929160808401919061099390612124565b80601f01602080910402602001604051908101604052809291908181526020018280546109bf90612124565b8015610a0c5780601f106109e157610100808354040283529160200191610a0c565b820191906000526020600020905b8154815290600101906020018083116109ef57829003601f168201915b50505050508152602001600582018054610a2590612124565b80601f0160208091040260200160405190810160405280929190818152602001828054610a5190612124565b8015610a9e5780601f10610a7357610100808354040283529160200191610a9e565b820191906000526020600020905b815481529060010190602001808311610a8157829003601f168201915b505050505081525050838380610ab390612109565b945081518110610ac557610ac561215f565b60200260200101819052505b80610adb81612109565b915050610904565b50909392505050565b610af76000336118f8565b610b345760405162461bcd60e51b815260206004820152600e60248201526d27b7363c902337b91020b236b4b760911b604482015260640161047a565b610b3f60018261187c565b50565b600082815260096020908152604090912082519091610b689160048401918501906119fd565b50505050565b600f8181548110610b7e57600080fd5b906000526020600020016000915090508054610b9990612124565b80601f0160208091040260200160405190810160405280929190818152602001828054610bc590612124565b8015610c125780601f10610be757610100808354040283529160200191610c12565b820191906000526020600020905b815481529060010190602001808311610bf557829003601f168201915b505050505081565b610c256000336118f8565b610c625760405162461bcd60e51b815260206004820152600e60248201526d27b7363c902337b91020b236b4b760911b604482015260640161047a565b610b3f60018261197b565b610c786000336118f8565b1515600114610cc25760405162461bcd60e51b815260206004820152601660248201527513db9b1e4810591b5a5b8810d85b88111bc8151a185d60521b604482015260640161047a565b610b3f60028261187c565b6060610cda6002836118f8565b610d195760405162461bcd60e51b815260206004820152601060248201526f4f6e6c7920666f7220446f63746f727360801b604482015260640161047a565b50506040805180820190915260018152603160f81b602082015290565b60155460609060009067ffffffffffffffff811115610d5757610d57611bb4565b604051908082528060200260200182016040528015610d9057816020015b610d7d611b3b565b815260200190600190039081610d755790505b5090506000805b6014548111610ae3576000818152600960205260409020600201546001600160a01b0386811691161415610f6957600081815260096020908152604091829020825160c0810184528154815260018201549281019290925260028101546001600160a01b039081169383019390935260038101549092166060820152600482018054919291608084019190610e2b90612124565b80601f0160208091040260200160405190810160405280929190818152602001828054610e5790612124565b8015610ea45780601f10610e7957610100808354040283529160200191610ea4565b820191906000526020600020905b815481529060010190602001808311610e8757829003601f168201915b50505050508152602001600582018054610ebd90612124565b80601f0160208091040260200160405190810160405280929190818152602001828054610ee990612124565b8015610f365780601f10610f0b57610100808354040283529160200191610f36565b820191906000526020600020905b815481529060010190602001808311610f1957829003601f168201915b505050505081525050838380610f4b90612109565b945081518110610f5d57610f5d61215f565b60200260200101819052505b80610f7381612109565b915050610d97565b60145460609060009067ffffffffffffffff811115610f9c57610f9c611bb4565b604051908082528060200260200182016040528015610fd557816020015b610fc2611afc565b815260200190600190039081610fba5790505b5090506000805b6014548110156111a45760086000610ff5836001612175565b81526020808201929092526040908101600020815160c0810183528154815260018201549381019390935260028101549183019190915260038101546001600160a01b0316606083015260048101805460808401919061105490612124565b80601f016020809104026020016040519081016040528092919081815260200182805461108090612124565b80156110cd5780601f106110a2576101008083540402835291602001916110cd565b820191906000526020600020905b8154815290600101906020018083116110b057829003601f168201915b505050505081526020016005820180546110e690612124565b80601f016020809104026020016040519081016040528092919081815260200182805461111290612124565b801561115f5780601f106111345761010080835404028352916020019161115f565b820191906000526020600020905b81548152906001019060200180831161114257829003601f168201915b50505050508152505083838061117490612109565b9450815181106111865761118661215f565b6020026020010181905250808061119c90612109565b915050610fdc565b509092915050565b6111b76000826118f8565b156111f65760405162461bcd60e51b815260206004820152600f60248201526e3ab9b2b924a21034b99020b236b4b760891b604482015260640161047a565b6112016003826118f8565b156112405760405162461bcd60e51b815260206004820152600f60248201526e1d5cd95c9259081a5cc81059d95b9d608a1b604482015260640161047a565b61124b6002826118f8565b1561128c5760405162461bcd60e51b8152602060048201526011602482015270155cd95c9259081a5cc814185d1a595b9d607a1b604482015260640161047a565b6112976001826118f8565b156112d85760405162461bcd60e51b8152602060048201526011602482015270155cd95c9259081a5cc814185d1a595b9d607a1b604482015260640161047a565b6001600160a01b03811660008181526007602090815260409182902080546001600160a01b031916909317835581518083019092526008808352671c185cdcdddbdc9960c21b929091019182526113339160018401916119fd565b5061133f60038361187c565b5050565b6000838152600860209081526040909120835190916113699160058401918601906119fd565b50600201555050565b6060610cda6001836118f8565b600d818154811061050b57600080fd5b6001600160a01b03811660009081526005602052604090208054606091906107b490612124565b601680549060006113c683612109565b90915550506016546000818152600960209081526040909120918255600182018790556002820180546001600160a01b038089166001600160a01b031992831617909255600384018054928816929091169190911790558351611431916005840191908601906119fd565b50815161144790600483019060208501906119fd565b506114558683601654611343565b6015805460018181018355600092909252825460069091027f55f448fdea98c4d29eb340757ef0a66cd03dbb9538908a6a81d96026b71ec4758101918255918301547f55f448fdea98c4d29eb340757ef0a66cd03dbb9538908a6a81d96026b71ec47683015560028301547f55f448fdea98c4d29eb340757ef0a66cd03dbb9538908a6a81d96026b71ec477830180546001600160a01b03199081166001600160a01b039384161790915560038501547f55f448fdea98c4d29eb340757ef0a66cd03dbb9538908a6a81d96026b71ec47885018054909216921691909117905560048301805484937f55f448fdea98c4d29eb340757ef0a66cd03dbb9538908a6a81d96026b71ec47901919061075790612124565b60155460609060009067ffffffffffffffff81111561158b5761158b611bb4565b6040519080825280602002602001820160405280156115c457816020015b6115b1611b3b565b8152602001906001900390816115a95790505b5090506000805b6014548111610ae3576000818152600960205260409020600301546001600160a01b038681169116141561179d57600081815260096020908152604091829020825160c0810184528154815260018201549281019290925260028101546001600160a01b03908116938301939093526003810154909216606082015260048201805491929160808401919061165f90612124565b80601f016020809104026020016040519081016040528092919081815260200182805461168b90612124565b80156116d85780601f106116ad576101008083540402835291602001916116d8565b820191906000526020600020905b8154815290600101906020018083116116bb57829003601f168201915b505050505081526020016005820180546116f190612124565b80601f016020809104026020016040519081016040528092919081815260200182805461171d90612124565b801561176a5780601f1061173f5761010080835404028352916020019161176a565b820191906000526020600020905b81548152906001019060200180831161174d57829003601f168201915b50505050508152505083838061177f90612109565b9450815181106117915761179161215f565b60200260200101819052505b806117a781612109565b9150506115cb565b6117ba6001336118f8565b151560011461180b5760405162461bcd60e51b815260206004820152601760248201527f4f6e6c7920446f63746f722043616e20446f2054686174000000000000000000604482015260640161047a565b6001600160a01b0381166000908152600660209081526040909120835190916118389183918601906119fd565b50600f80546001810182556000919091528351610b68917f8d1108e10bcb7c27dddfc02ed9d693a074039d026cf4ea4240b40f7d581ac802019060208601906119fd565b61188682826118f8565b156118d35760405162461bcd60e51b815260206004820152601f60248201527f526f6c65733a206163636f756e7420616c72656164792068617320726f6c6500604482015260640161047a565b6001600160a01b0316600090815260209190915260409020805460ff19166001179055565b60006001600160a01b03821661195b5760405162461bcd60e51b815260206004820152602260248201527f526f6c65733a206163636f756e7420697320746865207a65726f206164647265604482015261737360f01b606482015260840161047a565b506001600160a01b03166000908152602091909152604090205460ff1690565b61198582826118f8565b6119db5760405162461bcd60e51b815260206004820152602160248201527f526f6c65733a206163636f756e7420646f6573206e6f74206861766520726f6c6044820152606560f81b606482015260840161047a565b6001600160a01b0316600090815260209190915260409020805460ff19169055565b828054611a0990612124565b90600052602060002090601f016020900481019282611a2b5760008555611a71565b82601f10611a4457805160ff1916838001178555611a71565b82800160010185558215611a71579182015b82811115611a71578251825591602001919060010190611a56565b50611a7d929150611b83565b5090565b828054611a8d90612124565b90600052602060002090601f016020900481019282611aaf5760008555611a71565b82601f10611ac05780548555611a71565b82800160010185558215611a7157600052602060002091601f016020900482015b82811115611a71578254825591600101919060010190611ae1565b6040518060c0016040528060008152602001600081526020016000815260200160006001600160a01b0316815260200160608152602001606081525090565b6040518060c00160405280600081526020016000815260200160006001600160a01b0316815260200160006001600160a01b0316815260200160608152602001606081525090565b5b80821115611a7d5760008155600101611b84565b80356001600160a01b0381168114611baf57600080fd5b919050565b634e487b7160e01b600052604160045260246000fd5b600082601f830112611bdb57600080fd5b813567ffffffffffffffff80821115611bf657611bf6611bb4565b604051601f8301601f19908116603f01168101908282118183101715611c1e57611c1e611bb4565b81604052838152866020858801011115611c3757600080fd5b836020870160208301376000602085830101528094505050505092915050565b60008060408385031215611c6a57600080fd5b611c7383611b98565b9150602083013567ffffffffffffffff811115611c8f57600080fd5b611c9b85828601611bca565b9150509250929050565b60008060408385031215611cb857600080fd5b50508035926020909101359150565b600060208284031215611cd957600080fd5b611ce282611b98565b9392505050565b600060208284031215611cfb57600080fd5b5035919050565b60008060008060808587031215611d1857600080fd5b84359350611d2860208601611b98565b9250604085013567ffffffffffffffff80821115611d4557600080fd5b611d5188838901611bca565b93506060870135915080821115611d6757600080fd5b50611d7487828801611bca565b91505092959194509250565b6000815180845260005b81811015611da657602081850181015186830182015201611d8a565b81811115611db8576000602083870101525b50601f01601f19169290920160200192915050565b602081526000611ce26020830184611d80565b60006020808301818452808551808352604092508286019150828160051b87010184880160005b83811015611e8f57888303603f19018552815180518452878101518885015286810151878501526060808201516001600160a01b03169085015260808082015160c08287018190529190611e5d83880182611d80565b9250505060a08083015192508582038187015250611e7b8183611d80565b968901969450505090860190600101611e07565b509098975050505050505050565b60008060408385031215611eb057600080fd5b82359150602083013567ffffffffffffffff811115611c8f57600080fd5b60006020808301818452808551808352604092508286019150828160051b87010184880160005b83811015611e8f57888303603f190185528151805184528781015188850152868101516001600160a01b03908116888601526060808301519091169085015260808082015160c08287018190529190611f5083880182611d80565b9250505060a08083015192508582038187015250611f6e8183611d80565b968901969450505090860190600101611ef5565b600080600060608486031215611f9757600080fd5b83359250602084013567ffffffffffffffff811115611fb557600080fd5b611fc186828701611bca565b925050604084013590509250925092565b600080600080600060a08688031215611fea57600080fd5b85359450611ffa60208701611b98565b935061200860408701611b98565b9250606086013567ffffffffffffffff8082111561202557600080fd5b61203189838a01611bca565b9350608088013591508082111561204757600080fd5b5061205488828901611bca565b9150509295509295909350565b6000806040838503121561207457600080fd5b823567ffffffffffffffff81111561208b57600080fd5b61209785828601611bca565b9250506120a660208401611b98565b90509250929050565b60208082526024908201527f4f6e6c79204167656e63792043616e2041636365737320746869732066756e636040820152633a34b7b760e11b606082015260800190565b634e487b7160e01b600052601160045260246000fd5b600060001982141561211d5761211d6120f3565b5060010190565b600181811c9082168061213857607f821691505b6020821081141561215957634e487b7160e01b600052602260045260246000fd5b50919050565b634e487b7160e01b600052603260045260246000fd5b60008219821115612188576121886120f3565b50019056fea26469706673582212202e14f20dad14cd098bcd2c54837249f988ddd1858495add2e20aeaf7738f2e4264736f6c634300080b0033",
  "immutableReferences": {},
  "source": "// SPDX-License-Identifier: MIT\r\npragma solidity >=0.4.21;\r\n\r\nimport \"./Roles.sol\";\r\n\r\ncontract Contract {\r\n    using Roles for Roles.Role;\r\n\r\n    Roles.Role private admin;\r\n    Roles.Role private doctor;\r\n    Roles.Role private patient;\r\n    Roles.Role private agent;\r\n\r\n    struct Doctor {\r\n        string drHash;\r\n    }\r\n\r\n    struct Patient {\r\n        string patHash;\r\n    }\r\n\r\n    struct MedRec {\r\n        string RecordHash;\r\n    }\r\n\r\n    // +++\r\n\r\n    struct Agent {\r\n        address aID;\r\n        string pwd;\r\n    }\r\n\r\n    struct Bill {\r\n        uint256 id;\r\n        uint256 bID;\r\n        uint256 cID;\r\n        address pID;\r\n        string amount;\r\n        string status;\r\n    }\r\n\r\n    struct Claim {\r\n        uint256 id;\r\n        uint256 bID;\r\n        address pID;\r\n        address aID;\r\n        string status;\r\n        string amount;\r\n    }\r\n\r\n    mapping(address => Doctor) Doctors;\r\n    mapping(address => Patient) Patients;\r\n    mapping(address => MedRec) Records;\r\n\r\n    mapping(address => Agent) aMap;\r\n    mapping(uint256 => Bill) bMap;\r\n    mapping(uint256 => Claim) cMap;\r\n\r\n    mapping(address => Bill[]) bMaps;\r\n    mapping(address => Claim[]) uClaimMap;\r\n    mapping(address => Claim[]) aClaimMap;\r\n\r\n    address[] public Dr_ids;\r\n    address[] public Patient_ids;\r\n    string[] public RecordHashes;\r\n\r\n    address accountId;\r\n    address admin_id;\r\n    address get_patient_id;\r\n    address get_dr_id;\r\n\r\n    Bill[] bills;\r\n    Claim[] claims;\r\n    uint256 cID;\r\n    uint256 bID;\r\n\r\n    constructor() {\r\n        admin_id = msg.sender;\r\n        admin.add(admin_id);\r\n\r\n        cID = 0;\r\n        bID = 0;\r\n    }\r\n\r\n    //get Admin\r\n\r\n    function getAdmin() public view returns (address) {\r\n        return admin_id;\r\n    }\r\n\r\n    //Add Doctor\r\n\r\n    function addDoctor(address _newdr) public {\r\n        require(admin.has(msg.sender), \"Only For Admin\");\r\n        doctor.add(_newdr);\r\n    }\r\n\r\n    function delDoctor(address docID) public {\r\n        require(admin.has(msg.sender), \"Only For Admin\");\r\n        doctor.remove(docID);\r\n    }\r\n\r\n    // check is Doctor\r\n\r\n    function isDr(address id) public view returns (string memory) {\r\n        require(doctor.has(id), \"Only for Doctors\");\r\n        return \"1\";\r\n    }\r\n\r\n    // Check is Patient\r\n\r\n    function isPat(address id) public view returns (string memory) {\r\n        require(patient.has(id), \"Only for Doctors\");\r\n        return \"1\";\r\n    }\r\n\r\n    // Check is Agent\r\n    function isAgent(address id) public view returns (bool) {\r\n        return agent.has(id);\r\n    }\r\n\r\n    //  Add patient\r\n\r\n    function addPatient(address _newpatient) external onlyAdmin {\r\n        patient.add(_newpatient);\r\n    }\r\n\r\n    // Get Patient Information => retrun pateint IPFS hash\r\n\r\n    function getPatInfo(address iD) public view returns (string memory) {\r\n        return (Patients[iD].patHash);\r\n    }\r\n\r\n    // Add patient Information to BlockChain\r\n\r\n    function addPatInfo(address pat_id, string memory _patInfoHash) public {\r\n        Patient storage patInfo = Patients[pat_id];\r\n        patInfo.patHash = _patInfoHash;\r\n        Patient_ids.push(pat_id);\r\n\r\n        patient.add(pat_id);\r\n    }\r\n\r\n    // Add Medical record to block chain\r\n\r\n    function addMedRecord(string memory _recHash, address _pat_id) public {\r\n        require(doctor.has(msg.sender) == true, \"Only Doctor Can Do That\");\r\n\r\n        MedRec storage record = Records[_pat_id];\r\n        record.RecordHash = _recHash;\r\n        RecordHashes.push(_recHash);\r\n    }\r\n\r\n    // View Medical record return IPFS hash of record\r\n\r\n    function viewMedRec(address id) public view returns (string memory) {\r\n        return (Records[id].RecordHash);\r\n    }\r\n\r\n    // Insurance\r\n\r\n    function addAgent(address _aID) public {\r\n        require(!admin.has(_aID), \"userID is Admin\");\r\n        require(!agent.has(_aID), \"userId is Agent\");\r\n        require(!patient.has(_aID), \"UserId is Patient\");\r\n        require(!doctor.has(_aID), \"UserId is Patient\");\r\n        Agent storage a = aMap[_aID];\r\n        a.aID = _aID;\r\n        a.pwd = \"password\";\r\n\r\n        agent.add(_aID);\r\n    }\r\n\r\n    function addBill(\r\n        uint256 _id,\r\n        address _pID,\r\n        string memory _amount,\r\n        string memory _status\r\n    ) public {\r\n        bID++;\r\n        Bill storage b = bMap[bID];\r\n        b.id = bID;\r\n        b.bID = _id;\r\n        b.pID = _pID;\r\n        b.amount = _amount;\r\n        b.status = _status;\r\n\r\n        Bill[] storage bs = bMaps[_pID];\r\n        bs.push(b);\r\n\r\n        bills.push(b);\r\n    }\r\n\r\n    function getBills(address _id) public view returns (Bill[] memory) {\r\n        Bill[] memory _bills = new Bill[](bMaps[_id].length);\r\n        uint256 j = 0;\r\n        for (uint256 i = 0; i <= bills.length; i++) {\r\n            if (bMap[i].pID == _id) {\r\n                _bills[j++] = bMap[i];\r\n            }\r\n        }\r\n        return _bills;\r\n    }\r\n\r\n    function getAllBills() public view returns (Bill[] memory) {\r\n        Bill[] memory _bills = new Bill[](bills.length);\r\n        uint256 j = 0;\r\n        for (uint256 i = 0; i < bills.length; i++) {\r\n            _bills[j++] = bMap[i + 1];\r\n        }\r\n        return _bills;\r\n    }\r\n\r\n    function updateInsurance(\r\n        uint256 _id,\r\n        string memory _status,\r\n        uint256 _cID\r\n    ) public {\r\n        Bill storage b = bMap[_id];\r\n        b.status = _status;\r\n        b.cID = _cID;\r\n    }\r\n\r\n    function claimInsurance(\r\n        uint256 _bID,\r\n        address _pID,\r\n        address _aID,\r\n        string memory _amount,\r\n        string memory _status\r\n    ) public {\r\n        cID++;\r\n        Claim storage c = cMap[cID];\r\n\r\n        c.id = cID;\r\n        c.bID = _bID;\r\n        c.pID = _pID;\r\n        c.aID = _aID;\r\n        c.amount = _amount;\r\n        c.status = _status;\r\n\r\n        updateInsurance(_bID, _status, cID);\r\n\r\n        claims.push(c);\r\n    }\r\n\r\n    function getUserClaims(address _pID) public view returns (Claim[] memory) {\r\n        Claim[] memory _claims = new Claim[](claims.length);\r\n        uint256 j = 0;\r\n        for (uint256 i = 0; i <= bills.length; i++) {\r\n            if (cMap[i].pID == _pID) {\r\n                _claims[j++] = cMap[i];\r\n            }\r\n        }\r\n        return _claims;\r\n    }\r\n\r\n    function getAgentClaims(address _aID) public view returns (Claim[] memory) {\r\n        Claim[] memory _claims = new Claim[](claims.length);\r\n        uint256 j = 0;\r\n        for (uint256 i = 0; i <= bills.length; i++) {\r\n            if (cMap[i].aID == _aID) {\r\n                _claims[j++] = cMap[i];\r\n            }\r\n        }\r\n        return _claims;\r\n    }\r\n\r\n    function updateClaim(uint256 _cID, string memory _status) public {\r\n        Claim storage c = cMap[_cID];\r\n        c.status = _status;\r\n    }\r\n\r\n    function acceptClaim(uint256 _cID, uint256 _bID) public {\r\n        require(agent.has(msg.sender), \"Only Agency Can Access this function\");\r\n        string memory _status = \"Claim Accepted\";\r\n        updateClaim(_cID, _status);\r\n        updateInsurance(_bID, _status, _cID);\r\n    }\r\n\r\n    function rejectClaim(uint256 _cID, uint256 _bID) public {\r\n        require(agent.has(msg.sender), \"Only Agency Can Access this function\");\r\n        string memory _status = \"Claim Rejected\";\r\n        updateClaim(_cID, _status);\r\n        updateInsurance(_bID, _status, _cID);\r\n    }\r\n\r\n    function sendPayment(uint256 _cID, uint256 _bID) public {\r\n        string memory _status = \"Bill Payed\";\r\n        updateClaim(_cID, _status);\r\n        updateInsurance(_bID, _status, _cID);\r\n    }\r\n\r\n    /*\r\n        Modifiers\r\n    */\r\n\r\n    modifier onlyAdmin() {\r\n        require(admin.has(msg.sender) == true, \"Only Admin Can Do That\");\r\n        _;\r\n    }\r\n    modifier onlyDoctor() {\r\n        require(doctor.has(msg.sender) == true, \"Only Doctor Can Do That\");\r\n        _;\r\n    }\r\n    modifier onlyPatient() {\r\n        require(patient.has(msg.sender) == true, \"Only Admin Can Do That\");\r\n        _;\r\n    }\r\n}\r\n",
  "sourcePath": "C:\\Users\\Atamjeet kohli\\Desktop\\Health record Management 2\\Client\\contracts\\Contract.sol",
  "compiler": {
    "name": "solc",
    "version": "0.8.11+commit.d7f03943.Emscripten.clang"
  },
  "schemaVersion": "3.4.11",
  "updatedAt": "2023-04-26T18:36:21.232Z",
  "networkType": "ethereum",
  "devdoc": {
    "kind": "dev",
    "methods": {},
    "version": 1
  },
  "userdoc": {
    "kind": "user",
    "methods": {},
    "version": 1
  }
}